{
  "contractName": "Dancero",
  "abi": [
    {
      "inputs": [],
      "stateMutability": "nonpayable",
      "type": "constructor"
    },
    {
      "anonymous": false,
      "inputs": [
        {
          "indexed": true,
          "internalType": "address",
          "name": "account",
          "type": "address"
        },
        {
          "indexed": true,
          "internalType": "address",
          "name": "operator",
          "type": "address"
        },
        {
          "indexed": false,
          "internalType": "bool",
          "name": "approved",
          "type": "bool"
        }
      ],
      "name": "ApprovalForAll",
      "type": "event"
    },
    {
      "anonymous": false,
      "inputs": [
        {
          "indexed": true,
          "internalType": "address",
          "name": "previousOwner",
          "type": "address"
        },
        {
          "indexed": true,
          "internalType": "address",
          "name": "newOwner",
          "type": "address"
        }
      ],
      "name": "OwnershipTransferred",
      "type": "event"
    },
    {
      "anonymous": false,
      "inputs": [
        {
          "indexed": true,
          "internalType": "address",
          "name": "operator",
          "type": "address"
        },
        {
          "indexed": true,
          "internalType": "address",
          "name": "from",
          "type": "address"
        },
        {
          "indexed": true,
          "internalType": "address",
          "name": "to",
          "type": "address"
        },
        {
          "indexed": false,
          "internalType": "uint256[]",
          "name": "ids",
          "type": "uint256[]"
        },
        {
          "indexed": false,
          "internalType": "uint256[]",
          "name": "values",
          "type": "uint256[]"
        }
      ],
      "name": "TransferBatch",
      "type": "event"
    },
    {
      "anonymous": false,
      "inputs": [
        {
          "indexed": true,
          "internalType": "address",
          "name": "operator",
          "type": "address"
        },
        {
          "indexed": true,
          "internalType": "address",
          "name": "from",
          "type": "address"
        },
        {
          "indexed": true,
          "internalType": "address",
          "name": "to",
          "type": "address"
        },
        {
          "indexed": false,
          "internalType": "uint256",
          "name": "id",
          "type": "uint256"
        },
        {
          "indexed": false,
          "internalType": "uint256",
          "name": "value",
          "type": "uint256"
        }
      ],
      "name": "TransferSingle",
      "type": "event"
    },
    {
      "anonymous": false,
      "inputs": [
        {
          "indexed": false,
          "internalType": "string",
          "name": "value",
          "type": "string"
        },
        {
          "indexed": true,
          "internalType": "uint256",
          "name": "id",
          "type": "uint256"
        }
      ],
      "name": "URI",
      "type": "event"
    },
    {
      "inputs": [
        {
          "internalType": "address",
          "name": "account",
          "type": "address"
        },
        {
          "internalType": "uint256",
          "name": "id",
          "type": "uint256"
        }
      ],
      "name": "balanceOf",
      "outputs": [
        {
          "internalType": "uint256",
          "name": "",
          "type": "uint256"
        }
      ],
      "stateMutability": "view",
      "type": "function"
    },
    {
      "inputs": [
        {
          "internalType": "address[]",
          "name": "accounts",
          "type": "address[]"
        },
        {
          "internalType": "uint256[]",
          "name": "ids",
          "type": "uint256[]"
        }
      ],
      "name": "balanceOfBatch",
      "outputs": [
        {
          "internalType": "uint256[]",
          "name": "",
          "type": "uint256[]"
        }
      ],
      "stateMutability": "view",
      "type": "function"
    },
    {
      "inputs": [
        {
          "internalType": "address",
          "name": "account",
          "type": "address"
        },
        {
          "internalType": "address",
          "name": "operator",
          "type": "address"
        }
      ],
      "name": "isApprovedForAll",
      "outputs": [
        {
          "internalType": "bool",
          "name": "",
          "type": "bool"
        }
      ],
      "stateMutability": "view",
      "type": "function"
    },
    {
      "inputs": [],
      "name": "owner",
      "outputs": [
        {
          "internalType": "address",
          "name": "",
          "type": "address"
        }
      ],
      "stateMutability": "view",
      "type": "function"
    },
    {
      "inputs": [],
      "name": "renounceOwnership",
      "outputs": [],
      "stateMutability": "nonpayable",
      "type": "function"
    },
    {
      "inputs": [
        {
          "internalType": "address",
          "name": "from",
          "type": "address"
        },
        {
          "internalType": "address",
          "name": "to",
          "type": "address"
        },
        {
          "internalType": "uint256[]",
          "name": "ids",
          "type": "uint256[]"
        },
        {
          "internalType": "uint256[]",
          "name": "amounts",
          "type": "uint256[]"
        },
        {
          "internalType": "bytes",
          "name": "data",
          "type": "bytes"
        }
      ],
      "name": "safeBatchTransferFrom",
      "outputs": [],
      "stateMutability": "nonpayable",
      "type": "function"
    },
    {
      "inputs": [
        {
          "internalType": "address",
          "name": "from",
          "type": "address"
        },
        {
          "internalType": "address",
          "name": "to",
          "type": "address"
        },
        {
          "internalType": "uint256",
          "name": "id",
          "type": "uint256"
        },
        {
          "internalType": "uint256",
          "name": "amount",
          "type": "uint256"
        },
        {
          "internalType": "bytes",
          "name": "data",
          "type": "bytes"
        }
      ],
      "name": "safeTransferFrom",
      "outputs": [],
      "stateMutability": "nonpayable",
      "type": "function"
    },
    {
      "inputs": [
        {
          "internalType": "address",
          "name": "operator",
          "type": "address"
        },
        {
          "internalType": "bool",
          "name": "approved",
          "type": "bool"
        }
      ],
      "name": "setApprovalForAll",
      "outputs": [],
      "stateMutability": "nonpayable",
      "type": "function"
    },
    {
      "inputs": [
        {
          "internalType": "bytes4",
          "name": "interfaceId",
          "type": "bytes4"
        }
      ],
      "name": "supportsInterface",
      "outputs": [
        {
          "internalType": "bool",
          "name": "",
          "type": "bool"
        }
      ],
      "stateMutability": "view",
      "type": "function"
    },
    {
      "inputs": [
        {
          "internalType": "address",
          "name": "newOwner",
          "type": "address"
        }
      ],
      "name": "transferOwnership",
      "outputs": [],
      "stateMutability": "nonpayable",
      "type": "function"
    },
    {
      "inputs": [
        {
          "internalType": "uint256",
          "name": "",
          "type": "uint256"
        }
      ],
      "name": "uri",
      "outputs": [
        {
          "internalType": "string",
          "name": "",
          "type": "string"
        }
      ],
      "stateMutability": "view",
      "type": "function"
    },
    {
      "inputs": [
        {
          "internalType": "string",
          "name": "newuri",
          "type": "string"
        }
      ],
      "name": "setURI",
      "outputs": [],
      "stateMutability": "nonpayable",
      "type": "function"
    },
    {
      "inputs": [
        {
          "internalType": "address",
          "name": "account",
          "type": "address"
        },
        {
          "internalType": "uint256",
          "name": "id",
          "type": "uint256"
        },
        {
          "internalType": "uint256",
          "name": "amount",
          "type": "uint256"
        },
        {
          "internalType": "bytes",
          "name": "data",
          "type": "bytes"
        }
      ],
      "name": "mint",
      "outputs": [],
      "stateMutability": "nonpayable",
      "type": "function"
    },
    {
      "inputs": [
        {
          "internalType": "address",
          "name": "to",
          "type": "address"
        },
        {
          "internalType": "uint256[]",
          "name": "ids",
          "type": "uint256[]"
        },
        {
          "internalType": "uint256[]",
          "name": "amounts",
          "type": "uint256[]"
        },
        {
          "internalType": "bytes",
          "name": "data",
          "type": "bytes"
        }
      ],
      "name": "mintBatch",
      "outputs": [],
      "stateMutability": "nonpayable",
      "type": "function"
    }
  ],
  "bytecode": "0x60806040523480156200001157600080fd5b5060405180608001604052806046815260200162004089604691396200003d81620000ae60201b60201c565b506200005e62000052620000ca60201b60201c565b620000d260201b60201c565b62000083336001600a604051806020016040528060008152506200019860201b60201c565b620000a83360026014604051806020016040528060008152506200019860201b60201c565b62000d78565b8060029080519060200190620000c6929190620005f3565b5050565b600033905090565b6000600360009054906101000a900473ffffffffffffffffffffffffffffffffffffffff16905081600360006101000a81548173ffffffffffffffffffffffffffffffffffffffff021916908373ffffffffffffffffffffffffffffffffffffffff1602179055508173ffffffffffffffffffffffffffffffffffffffff168173ffffffffffffffffffffffffffffffffffffffff167f8be0079c531659141344cd1fd0a4f28419497f9722a3daafe3b4186f6b6457e060405160405180910390a35050565b600073ffffffffffffffffffffffffffffffffffffffff168473ffffffffffffffffffffffffffffffffffffffff1614156200020b576040517f08c379a000000000000000000000000000000000000000000000000000000000815260040162000202906200072a565b60405180910390fd5b60006200021d620000ca60201b60201c565b9050620002568160008762000238886200035d60201b60201c565b62000249886200035d60201b60201c565b87620003de60201b60201c565b8260008086815260200190815260200160002060008773ffffffffffffffffffffffffffffffffffffffff1673ffffffffffffffffffffffffffffffffffffffff1681526020019081526020016000206000828254620002b7919062000785565b925050819055508473ffffffffffffffffffffffffffffffffffffffff16600073ffffffffffffffffffffffffffffffffffffffff168273ffffffffffffffffffffffffffffffffffffffff167fc3d58168c5ae7397731d063d5bbf3d657854427343f4c083240f7aacaa2d0f62878760405162000337929190620007f3565b60405180910390a46200035681600087878787620003e660201b60201c565b5050505050565b60606000600167ffffffffffffffff8111156200037f576200037e62000820565b5b604051908082528060200260200182016040528015620003ae5781602001602082028036833780820191505090505b5090508281600081518110620003c957620003c86200084f565b5b60200260200101818152505080915050919050565b505050505050565b620004128473ffffffffffffffffffffffffffffffffffffffff16620005e060201b62000b5c1760201c565b15620005d8578373ffffffffffffffffffffffffffffffffffffffff1663f23a6e6187878686866040518663ffffffff1660e01b81526004016200045b95949392919062000967565b6020604051808303816000875af19250505080156200049a57506040513d601f19601f8201168201806040525081019062000497919062000a37565b60015b6200054c57620004a962000a76565b806308c379a014156200050d5750620004c162000ad1565b80620004ce57506200050f565b806040517f08c379a000000000000000000000000000000000000000000000000000000000815260040162000504919062000bbf565b60405180910390fd5b505b6040517f08c379a0000000000000000000000000000000000000000000000000000000008152600401620005439062000c59565b60405180910390fd5b63f23a6e6160e01b7bffffffffffffffffffffffffffffffffffffffffffffffffffffffff1916817bffffffffffffffffffffffffffffffffffffffffffffffffffffffff191614620005d6576040517f08c379a0000000000000000000000000000000000000000000000000000000008152600401620005cd9062000cf1565b60405180910390fd5b505b505050505050565b600080823b905060008111915050919050565b828054620006019062000d42565b90600052602060002090601f01602090048101928262000625576000855562000671565b82601f106200064057805160ff191683800117855562000671565b8280016001018555821562000671579182015b828111156200067057825182559160200191906001019062000653565b5b50905062000680919062000684565b5090565b5b808211156200069f57600081600090555060010162000685565b5090565b600082825260208201905092915050565b7f455243313135353a206d696e7420746f20746865207a65726f2061646472657360008201527f7300000000000000000000000000000000000000000000000000000000000000602082015250565b600062000712602183620006a3565b91506200071f82620006b4565b604082019050919050565b60006020820190508181036000830152620007458162000703565b9050919050565b6000819050919050565b7f4e487b7100000000000000000000000000000000000000000000000000000000600052601160045260246000fd5b600062000792826200074c565b91506200079f836200074c565b9250827fffffffffffffffffffffffffffffffffffffffffffffffffffffffffffffffff03821115620007d757620007d662000756565b5b828201905092915050565b620007ed816200074c565b82525050565b60006040820190506200080a6000830185620007e2565b620008196020830184620007e2565b9392505050565b7f4e487b7100000000000000000000000000000000000000000000000000000000600052604160045260246000fd5b7f4e487b7100000000000000000000000000000000000000000000000000000000600052603260045260246000fd5b600073ffffffffffffffffffffffffffffffffffffffff82169050919050565b6000620008ab826200087e565b9050919050565b620008bd816200089e565b82525050565b600081519050919050565b600082825260208201905092915050565b60005b83811015620008ff578082015181840152602081019050620008e2565b838111156200090f576000848401525b50505050565b6000601f19601f8301169050919050565b60006200093382620008c3565b6200093f8185620008ce565b935062000951818560208601620008df565b6200095c8162000915565b840191505092915050565b600060a0820190506200097e6000830188620008b2565b6200098d6020830187620008b2565b6200099c6040830186620007e2565b620009ab6060830185620007e2565b8181036080830152620009bf818462000926565b90509695505050505050565b6000604051905090565b600080fd5b60007fffffffff0000000000000000000000000000000000000000000000000000000082169050919050565b62000a1181620009da565b811462000a1d57600080fd5b50565b60008151905062000a318162000a06565b92915050565b60006020828403121562000a505762000a4f620009d5565b5b600062000a608482850162000a20565b91505092915050565b60008160e01c9050919050565b600060033d111562000a985760046000803e62000a9560005162000a69565b90505b90565b62000aa68262000915565b810181811067ffffffffffffffff8211171562000ac85762000ac762000820565b5b80604052505050565b600060443d101562000ae35762000b70565b62000aed620009cb565b60043d036004823e80513d602482011167ffffffffffffffff8211171562000b1757505062000b70565b808201805167ffffffffffffffff81111562000b37575050505062000b70565b80602083010160043d03850181111562000b5657505050505062000b70565b62000b678260200185018662000a9b565b82955050505050505b90565b600081519050919050565b600062000b8b8262000b73565b62000b978185620006a3565b935062000ba9818560208601620008df565b62000bb48162000915565b840191505092915050565b6000602082019050818103600083015262000bdb818462000b7e565b905092915050565b7f455243313135353a207472616e7366657220746f206e6f6e204552433131353560008201527f526563656976657220696d706c656d656e746572000000000000000000000000602082015250565b600062000c41603483620006a3565b915062000c4e8262000be3565b604082019050919050565b6000602082019050818103600083015262000c748162000c32565b9050919050565b7f455243313135353a204552433131353552656365697665722072656a6563746560008201527f6420746f6b656e73000000000000000000000000000000000000000000000000602082015250565b600062000cd9602883620006a3565b915062000ce68262000c7b565b604082019050919050565b6000602082019050818103600083015262000d0c8162000cca565b9050919050565b7f4e487b7100000000000000000000000000000000000000000000000000000000600052602260045260246000fd5b6000600282049050600182168062000d5b57607f821691505b6020821081141562000d725762000d7162000d13565b5b50919050565b6133018062000d886000396000f3fe608060405234801561001057600080fd5b50600436106100e95760003560e01c8063715018a61161008c578063a22cb46511610066578063a22cb46514610246578063e985e9c514610262578063f242432a14610292578063f2fde38b146102ae576100e9565b8063715018a614610202578063731133e91461020c5780638da5cb5b14610228576100e9565b80630e89341c116100c85780630e89341c1461016a5780631f7fdffa1461019a5780632eb2c2d6146101b65780634e1273f4146101d2576100e9565b8062fdd58e146100ee57806301ffc9a71461011e57806302fe53051461014e575b600080fd5b61010860048036038101906101039190611cf5565b6102ca565b6040516101159190611d44565b60405180910390f35b61013860048036038101906101339190611db7565b610393565b6040516101459190611dff565b60405180910390f35b61016860048036038101906101639190611f60565b610475565b005b610184600480360381019061017f9190611fa9565b6104fd565b604051610191919061205e565b60405180910390f35b6101b460048036038101906101af91906121e9565b610591565b005b6101d060048036038101906101cb91906122a4565b61061f565b005b6101ec60048036038101906101e79190612436565b6106c0565b6040516101f9919061256c565b60405180910390f35b61020a6107d9565b005b6102266004803603810190610221919061258e565b610861565b005b6102306108ef565b60405161023d9190612620565b60405180910390f35b610260600480360381019061025b9190612667565b610919565b005b61027c600480360381019061027791906126a7565b61092f565b6040516102899190611dff565b60405180910390f35b6102ac60048036038101906102a791906126e7565b6109c3565b005b6102c860048036038101906102c3919061277e565b610a64565b005b60008073ffffffffffffffffffffffffffffffffffffffff168373ffffffffffffffffffffffffffffffffffffffff16141561033b576040517f08c379a00000000000000000000000000000000000000000000000000000000081526004016103329061281d565b60405180910390fd5b60008083815260200190815260200160002060008473ffffffffffffffffffffffffffffffffffffffff1673ffffffffffffffffffffffffffffffffffffffff16815260200190815260200160002054905092915050565b60007fd9b67a26000000000000000000000000000000000000000000000000000000007bffffffffffffffffffffffffffffffffffffffffffffffffffffffff1916827bffffffffffffffffffffffffffffffffffffffffffffffffffffffff1916148061045e57507f0e89341c000000000000000000000000000000000000000000000000000000007bffffffffffffffffffffffffffffffffffffffffffffffffffffffff1916827bffffffffffffffffffffffffffffffffffffffffffffffffffffffff1916145b8061046e575061046d82610b6f565b5b9050919050565b61047d610bd9565b73ffffffffffffffffffffffffffffffffffffffff1661049b6108ef565b73ffffffffffffffffffffffffffffffffffffffff16146104f1576040517f08c379a00000000000000000000000000000000000000000000000000000000081526004016104e890612889565b60405180910390fd5b6104fa81610be1565b50565b60606002805461050c906128d8565b80601f0160208091040260200160405190810160405280929190818152602001828054610538906128d8565b80156105855780601f1061055a57610100808354040283529160200191610585565b820191906000526020600020905b81548152906001019060200180831161056857829003601f168201915b50505050509050919050565b610599610bd9565b73ffffffffffffffffffffffffffffffffffffffff166105b76108ef565b73ffffffffffffffffffffffffffffffffffffffff161461060d576040517f08c379a000000000000000000000000000000000000000000000000000000000815260040161060490612889565b60405180910390fd5b61061984848484610bfb565b50505050565b610627610bd9565b73ffffffffffffffffffffffffffffffffffffffff168573ffffffffffffffffffffffffffffffffffffffff16148061066d575061066c85610667610bd9565b61092f565b5b6106ac576040517f08c379a00000000000000000000000000000000000000000000000000000000081526004016106a39061297c565b60405180910390fd5b6106b98585858585610e19565b5050505050565b60608151835114610706576040517f08c379a00000000000000000000000000000000000000000000000000000000081526004016106fd90612a0e565b60405180910390fd5b6000835167ffffffffffffffff81111561072357610722611e35565b5b6040519080825280602002602001820160405280156107515781602001602082028036833780820191505090505b50905060005b84518110156107ce5761079e85828151811061077657610775612a2e565b5b602002602001015185838151811061079157610790612a2e565b5b60200260200101516102ca565b8282815181106107b1576107b0612a2e565b5b602002602001018181525050806107c790612a8c565b9050610757565b508091505092915050565b6107e1610bd9565b73ffffffffffffffffffffffffffffffffffffffff166107ff6108ef565b73ffffffffffffffffffffffffffffffffffffffff1614610855576040517f08c379a000000000000000000000000000000000000000000000000000000000815260040161084c90612889565b60405180910390fd5b61085f600061112d565b565b610869610bd9565b73ffffffffffffffffffffffffffffffffffffffff166108876108ef565b73ffffffffffffffffffffffffffffffffffffffff16146108dd576040517f08c379a00000000000000000000000000000000000000000000000000000000081526004016108d490612889565b60405180910390fd5b6108e9848484846111f3565b50505050565b6000600360009054906101000a900473ffffffffffffffffffffffffffffffffffffffff16905090565b61092b610924610bd9565b8383611389565b5050565b6000600160008473ffffffffffffffffffffffffffffffffffffffff1673ffffffffffffffffffffffffffffffffffffffff16815260200190815260200160002060008373ffffffffffffffffffffffffffffffffffffffff1673ffffffffffffffffffffffffffffffffffffffff16815260200190815260200160002060009054906101000a900460ff16905092915050565b6109cb610bd9565b73ffffffffffffffffffffffffffffffffffffffff168573ffffffffffffffffffffffffffffffffffffffff161480610a115750610a1085610a0b610bd9565b61092f565b5b610a50576040517f08c379a0000000000000000000000000000000000000000000000000000000008152600401610a4790612b47565b60405180910390fd5b610a5d85858585856114f6565b5050505050565b610a6c610bd9565b73ffffffffffffffffffffffffffffffffffffffff16610a8a6108ef565b73ffffffffffffffffffffffffffffffffffffffff1614610ae0576040517f08c379a0000000000000000000000000000000000000000000000000000000008152600401610ad790612889565b60405180910390fd5b600073ffffffffffffffffffffffffffffffffffffffff168173ffffffffffffffffffffffffffffffffffffffff161415610b50576040517f08c379a0000000000000000000000000000000000000000000000000000000008152600401610b4790612bd9565b60405180910390fd5b610b598161112d565b50565b600080823b905060008111915050919050565b60007f01ffc9a7000000000000000000000000000000000000000000000000000000007bffffffffffffffffffffffffffffffffffffffffffffffffffffffff1916827bffffffffffffffffffffffffffffffffffffffffffffffffffffffff1916149050919050565b600033905090565b8060029080519060200190610bf7929190611baa565b5050565b600073ffffffffffffffffffffffffffffffffffffffff168473ffffffffffffffffffffffffffffffffffffffff161415610c6b576040517f08c379a0000000000000000000000000000000000000000000000000000000008152600401610c6290612c6b565b60405180910390fd5b8151835114610caf576040517f08c379a0000000000000000000000000000000000000000000000000000000008152600401610ca690612cfd565b60405180910390fd5b6000610cb9610bd9565b9050610cca81600087878787611778565b60005b8451811015610d8357838181518110610ce957610ce8612a2e565b5b6020026020010151600080878481518110610d0757610d06612a2e565b5b6020026020010151815260200190815260200160002060008873ffffffffffffffffffffffffffffffffffffffff1673ffffffffffffffffffffffffffffffffffffffff1681526020019081526020016000206000828254610d699190612d1d565b925050819055508080610d7b90612a8c565b915050610ccd565b508473ffffffffffffffffffffffffffffffffffffffff16600073ffffffffffffffffffffffffffffffffffffffff168273ffffffffffffffffffffffffffffffffffffffff167f4a39dc06d4c0dbc64b70af90fd698a233a518aa5d07e595d983b8c0526c8f7fb8787604051610dfb929190612d73565b60405180910390a4610e1281600087878787611780565b5050505050565b8151835114610e5d576040517f08c379a0000000000000000000000000000000000000000000000000000000008152600401610e5490612cfd565b60405180910390fd5b600073ffffffffffffffffffffffffffffffffffffffff168473ffffffffffffffffffffffffffffffffffffffff161415610ecd576040517f08c379a0000000000000000000000000000000000000000000000000000000008152600401610ec490612e1c565b60405180910390fd5b6000610ed7610bd9565b9050610ee7818787878787611778565b60005b8451811015611098576000858281518110610f0857610f07612a2e565b5b602002602001015190506000858381518110610f2757610f26612a2e565b5b60200260200101519050600080600084815260200190815260200160002060008b73ffffffffffffffffffffffffffffffffffffffff1673ffffffffffffffffffffffffffffffffffffffff16815260200190815260200160002054905081811015610fc8576040517f08c379a0000000000000000000000000000000000000000000000000000000008152600401610fbf90612eae565b60405180910390fd5b81810360008085815260200190815260200160002060008c73ffffffffffffffffffffffffffffffffffffffff1673ffffffffffffffffffffffffffffffffffffffff168152602001908152602001600020819055508160008085815260200190815260200160002060008b73ffffffffffffffffffffffffffffffffffffffff1673ffffffffffffffffffffffffffffffffffffffff168152602001908152602001600020600082825461107d9190612d1d565b925050819055505050508061109190612a8c565b9050610eea565b508473ffffffffffffffffffffffffffffffffffffffff168673ffffffffffffffffffffffffffffffffffffffff168273ffffffffffffffffffffffffffffffffffffffff167f4a39dc06d4c0dbc64b70af90fd698a233a518aa5d07e595d983b8c0526c8f7fb878760405161110f929190612d73565b60405180910390a4611125818787878787611780565b505050505050565b6000600360009054906101000a900473ffffffffffffffffffffffffffffffffffffffff16905081600360006101000a81548173ffffffffffffffffffffffffffffffffffffffff021916908373ffffffffffffffffffffffffffffffffffffffff1602179055508173ffffffffffffffffffffffffffffffffffffffff168173ffffffffffffffffffffffffffffffffffffffff167f8be0079c531659141344cd1fd0a4f28419497f9722a3daafe3b4186f6b6457e060405160405180910390a35050565b600073ffffffffffffffffffffffffffffffffffffffff168473ffffffffffffffffffffffffffffffffffffffff161415611263576040517f08c379a000000000000000000000000000000000000000000000000000000000815260040161125a90612c6b565b60405180910390fd5b600061126d610bd9565b905061128e8160008761127f88611958565b61128888611958565b87611778565b8260008086815260200190815260200160002060008773ffffffffffffffffffffffffffffffffffffffff1673ffffffffffffffffffffffffffffffffffffffff16815260200190815260200160002060008282546112ed9190612d1d565b925050819055508473ffffffffffffffffffffffffffffffffffffffff16600073ffffffffffffffffffffffffffffffffffffffff168273ffffffffffffffffffffffffffffffffffffffff167fc3d58168c5ae7397731d063d5bbf3d657854427343f4c083240f7aacaa2d0f62878760405161136b929190612ece565b60405180910390a4611382816000878787876119d2565b5050505050565b8173ffffffffffffffffffffffffffffffffffffffff168373ffffffffffffffffffffffffffffffffffffffff1614156113f8576040517f08c379a00000000000000000000000000000000000000000000000000000000081526004016113ef90612f69565b60405180910390fd5b80600160008573ffffffffffffffffffffffffffffffffffffffff1673ffffffffffffffffffffffffffffffffffffffff16815260200190815260200160002060008473ffffffffffffffffffffffffffffffffffffffff1673ffffffffffffffffffffffffffffffffffffffff16815260200190815260200160002060006101000a81548160ff0219169083151502179055508173ffffffffffffffffffffffffffffffffffffffff168373ffffffffffffffffffffffffffffffffffffffff167f17307eab39ab6107e8899845ad3d59bd9653f200f220920489ca2b5937696c31836040516114e99190611dff565b60405180910390a3505050565b600073ffffffffffffffffffffffffffffffffffffffff168473ffffffffffffffffffffffffffffffffffffffff161415611566576040517f08c379a000000000000000000000000000000000000000000000000000000000815260040161155d90612e1c565b60405180910390fd5b6000611570610bd9565b905061159081878761158188611958565b61158a88611958565b87611778565b600080600086815260200190815260200160002060008873ffffffffffffffffffffffffffffffffffffffff1673ffffffffffffffffffffffffffffffffffffffff16815260200190815260200160002054905083811015611627576040517f08c379a000000000000000000000000000000000000000000000000000000000815260040161161e90612eae565b60405180910390fd5b83810360008087815260200190815260200160002060008973ffffffffffffffffffffffffffffffffffffffff1673ffffffffffffffffffffffffffffffffffffffff168152602001908152602001600020819055508360008087815260200190815260200160002060008873ffffffffffffffffffffffffffffffffffffffff1673ffffffffffffffffffffffffffffffffffffffff16815260200190815260200160002060008282546116dc9190612d1d565b925050819055508573ffffffffffffffffffffffffffffffffffffffff168773ffffffffffffffffffffffffffffffffffffffff168373ffffffffffffffffffffffffffffffffffffffff167fc3d58168c5ae7397731d063d5bbf3d657854427343f4c083240f7aacaa2d0f628888604051611759929190612ece565b60405180910390a461176f8288888888886119d2565b50505050505050565b505050505050565b61179f8473ffffffffffffffffffffffffffffffffffffffff16610b5c565b15611950578373ffffffffffffffffffffffffffffffffffffffff1663bc197c8187878686866040518663ffffffff1660e01b81526004016117e5959493929190612fde565b6020604051808303816000875af192505050801561182157506040513d601f19601f8201168201806040525081019061181e919061305b565b60015b6118c75761182d613095565b806308c379a0141561188a57506118426130b7565b8061184d575061188c565b806040517f08c379a0000000000000000000000000000000000000000000000000000000008152600401611881919061205e565b60405180910390fd5b505b6040517f08c379a00000000000000000000000000000000000000000000000000000000081526004016118be906131bf565b60405180910390fd5b63bc197c8160e01b7bffffffffffffffffffffffffffffffffffffffffffffffffffffffff1916817bffffffffffffffffffffffffffffffffffffffffffffffffffffffff19161461194e576040517f08c379a000000000000000000000000000000000000000000000000000000000815260040161194590613251565b60405180910390fd5b505b505050505050565b60606000600167ffffffffffffffff81111561197757611976611e35565b5b6040519080825280602002602001820160405280156119a55781602001602082028036833780820191505090505b50905082816000815181106119bd576119bc612a2e565b5b60200260200101818152505080915050919050565b6119f18473ffffffffffffffffffffffffffffffffffffffff16610b5c565b15611ba2578373ffffffffffffffffffffffffffffffffffffffff1663f23a6e6187878686866040518663ffffffff1660e01b8152600401611a37959493929190613271565b6020604051808303816000875af1925050508015611a7357506040513d601f19601f82011682018060405250810190611a70919061305b565b60015b611b1957611a7f613095565b806308c379a01415611adc5750611a946130b7565b80611a9f5750611ade565b806040517f08c379a0000000000000000000000000000000000000000000000000000000008152600401611ad3919061205e565b60405180910390fd5b505b6040517f08c379a0000000000000000000000000000000000000000000000000000000008152600401611b10906131bf565b60405180910390fd5b63f23a6e6160e01b7bffffffffffffffffffffffffffffffffffffffffffffffffffffffff1916817bffffffffffffffffffffffffffffffffffffffffffffffffffffffff191614611ba0576040517f08c379a0000000000000000000000000000000000000000000000000000000008152600401611b9790613251565b60405180910390fd5b505b505050505050565b828054611bb6906128d8565b90600052602060002090601f016020900481019282611bd85760008555611c1f565b82601f10611bf157805160ff1916838001178555611c1f565b82800160010185558215611c1f579182015b82811115611c1e578251825591602001919060010190611c03565b5b509050611c2c9190611c30565b5090565b5b80821115611c49576000816000905550600101611c31565b5090565b6000604051905090565b600080fd5b600080fd5b600073ffffffffffffffffffffffffffffffffffffffff82169050919050565b6000611c8c82611c61565b9050919050565b611c9c81611c81565b8114611ca757600080fd5b50565b600081359050611cb981611c93565b92915050565b6000819050919050565b611cd281611cbf565b8114611cdd57600080fd5b50565b600081359050611cef81611cc9565b92915050565b60008060408385031215611d0c57611d0b611c57565b5b6000611d1a85828601611caa565b9250506020611d2b85828601611ce0565b9150509250929050565b611d3e81611cbf565b82525050565b6000602082019050611d596000830184611d35565b92915050565b60007fffffffff0000000000000000000000000000000000000000000000000000000082169050919050565b611d9481611d5f565b8114611d9f57600080fd5b50565b600081359050611db181611d8b565b92915050565b600060208284031215611dcd57611dcc611c57565b5b6000611ddb84828501611da2565b91505092915050565b60008115159050919050565b611df981611de4565b82525050565b6000602082019050611e146000830184611df0565b92915050565b600080fd5b600080fd5b6000601f19601f8301169050919050565b7f4e487b7100000000000000000000000000000000000000000000000000000000600052604160045260246000fd5b611e6d82611e24565b810181811067ffffffffffffffff82111715611e8c57611e8b611e35565b5b80604052505050565b6000611e9f611c4d565b9050611eab8282611e64565b919050565b600067ffffffffffffffff821115611ecb57611eca611e35565b5b611ed482611e24565b9050602081019050919050565b82818337600083830152505050565b6000611f03611efe84611eb0565b611e95565b905082815260208101848484011115611f1f57611f1e611e1f565b5b611f2a848285611ee1565b509392505050565b600082601f830112611f4757611f46611e1a565b5b8135611f57848260208601611ef0565b91505092915050565b600060208284031215611f7657611f75611c57565b5b600082013567ffffffffffffffff811115611f9457611f93611c5c565b5b611fa084828501611f32565b91505092915050565b600060208284031215611fbf57611fbe611c57565b5b6000611fcd84828501611ce0565b91505092915050565b600081519050919050565b600082825260208201905092915050565b60005b83811015612010578082015181840152602081019050611ff5565b8381111561201f576000848401525b50505050565b600061203082611fd6565b61203a8185611fe1565b935061204a818560208601611ff2565b61205381611e24565b840191505092915050565b600060208201905081810360008301526120788184612025565b905092915050565b600067ffffffffffffffff82111561209b5761209a611e35565b5b602082029050602081019050919050565b600080fd5b60006120c46120bf84612080565b611e95565b905080838252602082019050602084028301858111156120e7576120e66120ac565b5b835b8181101561211057806120fc8882611ce0565b8452602084019350506020810190506120e9565b5050509392505050565b600082601f83011261212f5761212e611e1a565b5b813561213f8482602086016120b1565b91505092915050565b600067ffffffffffffffff82111561216357612162611e35565b5b61216c82611e24565b9050602081019050919050565b600061218c61218784612148565b611e95565b9050828152602081018484840111156121a8576121a7611e1f565b5b6121b3848285611ee1565b509392505050565b600082601f8301126121d0576121cf611e1a565b5b81356121e0848260208601612179565b91505092915050565b6000806000806080858703121561220357612202611c57565b5b600061221187828801611caa565b945050602085013567ffffffffffffffff81111561223257612231611c5c565b5b61223e8782880161211a565b935050604085013567ffffffffffffffff81111561225f5761225e611c5c565b5b61226b8782880161211a565b925050606085013567ffffffffffffffff81111561228c5761228b611c5c565b5b612298878288016121bb565b91505092959194509250565b600080600080600060a086880312156122c0576122bf611c57565b5b60006122ce88828901611caa565b95505060206122df88828901611caa565b945050604086013567ffffffffffffffff811115612300576122ff611c5c565b5b61230c8882890161211a565b935050606086013567ffffffffffffffff81111561232d5761232c611c5c565b5b6123398882890161211a565b925050608086013567ffffffffffffffff81111561235a57612359611c5c565b5b612366888289016121bb565b9150509295509295909350565b600067ffffffffffffffff82111561238e5761238d611e35565b5b602082029050602081019050919050565b60006123b26123ad84612373565b611e95565b905080838252602082019050602084028301858111156123d5576123d46120ac565b5b835b818110156123fe57806123ea8882611caa565b8452602084019350506020810190506123d7565b5050509392505050565b600082601f83011261241d5761241c611e1a565b5b813561242d84826020860161239f565b91505092915050565b6000806040838503121561244d5761244c611c57565b5b600083013567ffffffffffffffff81111561246b5761246a611c5c565b5b61247785828601612408565b925050602083013567ffffffffffffffff81111561249857612497611c5c565b5b6124a48582860161211a565b9150509250929050565b600081519050919050565b600082825260208201905092915050565b6000819050602082019050919050565b6124e381611cbf565b82525050565b60006124f583836124da565b60208301905092915050565b6000602082019050919050565b6000612519826124ae565b61252381856124b9565b935061252e836124ca565b8060005b8381101561255f57815161254688826124e9565b975061255183612501565b925050600181019050612532565b5085935050505092915050565b60006020820190508181036000830152612586818461250e565b905092915050565b600080600080608085870312156125a8576125a7611c57565b5b60006125b687828801611caa565b94505060206125c787828801611ce0565b93505060406125d887828801611ce0565b925050606085013567ffffffffffffffff8111156125f9576125f8611c5c565b5b612605878288016121bb565b91505092959194509250565b61261a81611c81565b82525050565b60006020820190506126356000830184612611565b92915050565b61264481611de4565b811461264f57600080fd5b50565b6000813590506126618161263b565b92915050565b6000806040838503121561267e5761267d611c57565b5b600061268c85828601611caa565b925050602061269d85828601612652565b9150509250929050565b600080604083850312156126be576126bd611c57565b5b60006126cc85828601611caa565b92505060206126dd85828601611caa565b9150509250929050565b600080600080600060a0868803121561270357612702611c57565b5b600061271188828901611caa565b955050602061272288828901611caa565b945050604061273388828901611ce0565b935050606061274488828901611ce0565b925050608086013567ffffffffffffffff81111561276557612764611c5c565b5b612771888289016121bb565b9150509295509295909350565b60006020828403121561279457612793611c57565b5b60006127a284828501611caa565b91505092915050565b7f455243313135353a2062616c616e636520717565727920666f7220746865207a60008201527f65726f2061646472657373000000000000000000000000000000000000000000602082015250565b6000612807602b83611fe1565b9150612812826127ab565b604082019050919050565b60006020820190508181036000830152612836816127fa565b9050919050565b7f4f776e61626c653a2063616c6c6572206973206e6f7420746865206f776e6572600082015250565b6000612873602083611fe1565b915061287e8261283d565b602082019050919050565b600060208201905081810360008301526128a281612866565b9050919050565b7f4e487b7100000000000000000000000000000000000000000000000000000000600052602260045260246000fd5b600060028204905060018216806128f057607f821691505b60208210811415612904576129036128a9565b5b50919050565b7f455243313135353a207472616e736665722063616c6c6572206973206e6f742060008201527f6f776e6572206e6f7220617070726f7665640000000000000000000000000000602082015250565b6000612966603283611fe1565b91506129718261290a565b604082019050919050565b6000602082019050818103600083015261299581612959565b9050919050565b7f455243313135353a206163636f756e747320616e6420696473206c656e67746860008201527f206d69736d617463680000000000000000000000000000000000000000000000602082015250565b60006129f8602983611fe1565b9150612a038261299c565b604082019050919050565b60006020820190508181036000830152612a27816129eb565b9050919050565b7f4e487b7100000000000000000000000000000000000000000000000000000000600052603260045260246000fd5b7f4e487b7100000000000000000000000000000000000000000000000000000000600052601160045260246000fd5b6000612a9782611cbf565b91507fffffffffffffffffffffffffffffffffffffffffffffffffffffffffffffffff821415612aca57612ac9612a5d565b5b600182019050919050565b7f455243313135353a2063616c6c6572206973206e6f74206f776e6572206e6f7260008201527f20617070726f7665640000000000000000000000000000000000000000000000602082015250565b6000612b31602983611fe1565b9150612b3c82612ad5565b604082019050919050565b60006020820190508181036000830152612b6081612b24565b9050919050565b7f4f776e61626c653a206e6577206f776e657220697320746865207a65726f206160008201527f6464726573730000000000000000000000000000000000000000000000000000602082015250565b6000612bc3602683611fe1565b9150612bce82612b67565b604082019050919050565b60006020820190508181036000830152612bf281612bb6565b9050919050565b7f455243313135353a206d696e7420746f20746865207a65726f2061646472657360008201527f7300000000000000000000000000000000000000000000000000000000000000602082015250565b6000612c55602183611fe1565b9150612c6082612bf9565b604082019050919050565b60006020820190508181036000830152612c8481612c48565b9050919050565b7f455243313135353a2069647320616e6420616d6f756e7473206c656e6774682060008201527f6d69736d61746368000000000000000000000000000000000000000000000000602082015250565b6000612ce7602883611fe1565b9150612cf282612c8b565b604082019050919050565b60006020820190508181036000830152612d1681612cda565b9050919050565b6000612d2882611cbf565b9150612d3383611cbf565b9250827fffffffffffffffffffffffffffffffffffffffffffffffffffffffffffffffff03821115612d6857612d67612a5d565b5b828201905092915050565b60006040820190508181036000830152612d8d818561250e565b90508181036020830152612da1818461250e565b90509392505050565b7f455243313135353a207472616e7366657220746f20746865207a65726f20616460008201527f6472657373000000000000000000000000000000000000000000000000000000602082015250565b6000612e06602583611fe1565b9150612e1182612daa565b604082019050919050565b60006020820190508181036000830152612e3581612df9565b9050919050565b7f455243313135353a20696e73756666696369656e742062616c616e636520666f60008201527f72207472616e7366657200000000000000000000000000000000000000000000602082015250565b6000612e98602a83611fe1565b9150612ea382612e3c565b604082019050919050565b60006020820190508181036000830152612ec781612e8b565b9050919050565b6000604082019050612ee36000830185611d35565b612ef06020830184611d35565b9392505050565b7f455243313135353a2073657474696e6720617070726f76616c2073746174757360008201527f20666f722073656c660000000000000000000000000000000000000000000000602082015250565b6000612f53602983611fe1565b9150612f5e82612ef7565b604082019050919050565b60006020820190508181036000830152612f8281612f46565b9050919050565b600081519050919050565b600082825260208201905092915050565b6000612fb082612f89565b612fba8185612f94565b9350612fca818560208601611ff2565b612fd381611e24565b840191505092915050565b600060a082019050612ff36000830188612611565b6130006020830187612611565b8181036040830152613012818661250e565b90508181036060830152613026818561250e565b9050818103608083015261303a8184612fa5565b90509695505050505050565b60008151905061305581611d8b565b92915050565b60006020828403121561307157613070611c57565b5b600061307f84828501613046565b91505092915050565b60008160e01c9050919050565b600060033d11156130b45760046000803e6130b1600051613088565b90505b90565b600060443d10156130c75761314a565b6130cf611c4d565b60043d036004823e80513d602482011167ffffffffffffffff821117156130f757505061314a565b808201805167ffffffffffffffff811115613115575050505061314a565b80602083010160043d03850181111561313257505050505061314a565b61314182602001850186611e64565b82955050505050505b90565b7f455243313135353a207472616e7366657220746f206e6f6e204552433131353560008201527f526563656976657220696d706c656d656e746572000000000000000000000000602082015250565b60006131a9603483611fe1565b91506131b48261314d565b604082019050919050565b600060208201905081810360008301526131d88161319c565b9050919050565b7f455243313135353a204552433131353552656365697665722072656a6563746560008201527f6420746f6b656e73000000000000000000000000000000000000000000000000602082015250565b600061323b602883611fe1565b9150613246826131df565b604082019050919050565b6000602082019050818103600083015261326a8161322e565b9050919050565b600060a0820190506132866000830188612611565b6132936020830187612611565b6132a06040830186611d35565b6132ad6060830185611d35565b81810360808301526132bf8184612fa5565b9050969550505050505056fea2646970667358221220a7743f5ae083a14e94fc356c2b8a1747bc9b1bb57f8b5045a16017b7ab2ccdb464736f6c634300080a003368747470733a2f2f7261772e67697468756275736572636f6e74656e742e636f6d2f476569737444762f7072756562614e4654313135352f6d61696e2f7b69647d2e6a736f6e",
  "immutableReferences": {},
  "source": "// SPDX-License-Identifier: MIT\r\npragma solidity ^0.8.2;\r\n\r\nimport \"@openzeppelin/contracts/token/ERC1155/ERC1155.sol\";\r\nimport \"@openzeppelin/contracts/access/Ownable.sol\";\r\n\r\ncontract Dancero is ERC1155, Ownable {\r\n    constructor() ERC1155(\"https://raw.githubusercontent.com/GeistDv/pruebaNFT1155/main/{id}.json\") {\r\n        _mint(msg.sender, 1 , 10 , \"\");\r\n        _mint(msg.sender, 2 , 20 , \"\");\r\n\r\n        //1 m\r\n        //2 h\r\n    }\r\n\r\n    function setURI(string memory newuri) public onlyOwner {\r\n        _setURI(newuri);\r\n    }\r\n\r\n    function mint(address account, uint256 id, uint256 amount, bytes memory data)\r\n        public\r\n        onlyOwner\r\n    {\r\n        _mint(account, id, amount, data);\r\n    }\r\n\r\n    function mintBatch(address to, uint256[] memory ids, uint256[] memory amounts, bytes memory data)\r\n        public\r\n        onlyOwner\r\n    {\r\n        _mintBatch(to, ids, amounts, data);\r\n    }\r\n}\r\n//0xa7B7cC621163e3ac45c379c50580bff36D1310C5",
  "sourcePath": "C:\\Users\\ivan9\\OneDrive\\Documentos\\GitHub\\dancero-ui\\src\\contracts\\danceroNFT1155.sol",
  "compiler": {
    "name": "solc",
    "version": "0.8.10+commit.fc410830.Emscripten.clang"
  },
  "schemaVersion": "3.4.3",
  "updatedAt": "2022-01-22T13:06:01.391Z",
  "devdoc": {
    "kind": "dev",
    "methods": {
      "balanceOf(address,uint256)": {
        "details": "See {IERC1155-balanceOf}. Requirements: - `account` cannot be the zero address."
      },
      "balanceOfBatch(address[],uint256[])": {
        "details": "See {IERC1155-balanceOfBatch}. Requirements: - `accounts` and `ids` must have the same length."
      },
      "isApprovedForAll(address,address)": {
        "details": "See {IERC1155-isApprovedForAll}."
      },
      "owner()": {
        "details": "Returns the address of the current owner."
      },
      "renounceOwnership()": {
        "details": "Leaves the contract without owner. It will not be possible to call `onlyOwner` functions anymore. Can only be called by the current owner. NOTE: Renouncing ownership will leave the contract without an owner, thereby removing any functionality that is only available to the owner."
      },
      "safeBatchTransferFrom(address,address,uint256[],uint256[],bytes)": {
        "details": "See {IERC1155-safeBatchTransferFrom}."
      },
      "safeTransferFrom(address,address,uint256,uint256,bytes)": {
        "details": "See {IERC1155-safeTransferFrom}."
      },
      "setApprovalForAll(address,bool)": {
        "details": "See {IERC1155-setApprovalForAll}."
      },
      "supportsInterface(bytes4)": {
        "details": "See {IERC165-supportsInterface}."
      },
      "transferOwnership(address)": {
        "details": "Transfers ownership of the contract to a new account (`newOwner`). Can only be called by the current owner."
      },
      "uri(uint256)": {
        "details": "See {IERC1155MetadataURI-uri}. This implementation returns the same URI for *all* token types. It relies on the token type ID substitution mechanism https://eips.ethereum.org/EIPS/eip-1155#metadata[defined in the EIP]. Clients calling this function must replace the `\\{id\\}` substring with the actual token type ID."
      }
    },
    "version": 1
  },
  "userdoc": {
    "kind": "user",
    "methods": {},
    "version": 1
  }
}